:100000000C94EF020C940C030C940C030C940C0352
:100010000C940C030C940C030C940C030C940C0324
:100020000C940C030C940C030C940D1A0C94C91929
:100030000C940A1B0C940C030C940C030C940C03EE
:100040000C940C030C940C030C940C030C940C03F4
:100050000C940C030C94E61A0C940C030C940C03F3
:100060000C940C030C940C030C940C030C940C03D4
:100070000C940C030C940C030C940C030C940C03C4
:100080000C940C030C940C030C940C030C940C03B4
:100090000C940C030C940C030C940C030C940C03A4
:1000A0000C940C030C940C030C940C0305010980B4
:1000B000A101850319012AB700150126B700950192
:1000C00075108100C0050C0901A101850419012AE0
:1000D000A002150126A002950175108100C00660DE
:1000E000FF0961A1010962150026FF00952075082E
:1000F00081020963150026FF00952075089102C052
:1001000005010906A101050719E029E715002501E8
:10011000950875018102950175088101050719008F
:1001200029FF150026FF00950675088100050819AE
:10013000012905950575019102950175039101C08D
:1001400000000000000000000000000000000000AF
:10015000000000000000000000000000000000009F
:10016000000000007E0F00D4FFFFFFC700000078F2
:1001700000000000000000002A2B28000000000002
:100180000000000000000000000000290000000046
:100190002C1E3420212224342627252E362D3738B4
:1001A000271E1F202122232425263333362E3738BD
:1001B0001F0405060708090A0B0C0D0E0F1011127B
:1001C000131415161718191A1B1C1D2F3130232D47
:1001D000350405060708090A0B0C0D0E0F10111245
:1001E000131415161718191A1B1C1D2F3130354CF6
:1001F00000047F3F1F643214643214783C1E1E14C6
:100200000A050001010101010101010102020202CE
:1002100002020202020303030303030303040404B0
:100220000404040405050505050606060606070779
:1002300007070708080808090909090A0A0A0B0B31
:100240000B0C0C0C0D0D0D0E0E0E0F0F0F101011D0
:100250001111121213131414151516161717181856
:1002600019191A1A1B1B1C1D1D1E1E1F20202122BE
:1002700022232424252626272829292A2B2C2D2D04
:100280002E2F30313232333435363738393A3B3C21
:100290003D3E3F404142434445464748494A4C4D14
:1002A0004E4F50515354555658595A5B5D5E5F61DD
:1002B0006264656668696B6C6D6F70727375777870
:1002C0007A7B7D7E8082838587888A8C8E8F9193CE
:1002D0009596989A9C9EA0A2A3A5A7A9ABADAFB1F5
:1002E000B3B5B7BABCBEC0C2C4C6C9CBCDCFD1D4DA
:1002F000D6D8DBDDDFE2E4E7E9EBEEF0F3F5F8FA80
:10030000FDFFFFAA7F55402223252628292A2C2DD0
:100310002F3032333536383A3B3D3E404243454735
:10032000494A4C4E5051535557595A5C5E6062646D
:100330006668696B6D6F71737577797B7D7F81837B
:100340008587898A8C8E90929496989A9C9E9FA17C
:10035000A3A5A7A8AAACAEAFB1B3B4B6B8B9BBBC9D
:10036000BEBFC1C2C3C5C6C7C9CACBCCCDCED0D112
:10037000D2D2D3D4D5D6D7D7D8D9D9DADADBDBDB0A
:10038000DCDCDCDCDCDDDDDDDDDCDCDCDCDCDBDBAB
:10039000DBDADAD9D9D8D7D7D6D5D4D3D2D2D1D0FF
:1003A000CECDCCCBCAC9C7C6C5C3C2C1BFBEBCBBFC
:1003B000B9B8B6B4B3B1AFAEACAAA8A7A5A3A19F74
:1003C0009E9C9A98969492908E8C8A898785838138
:1003D0007F7D7B79777573716F6D6B696866646219
:1003E000605E5C5A5957555351504E4C4A494745E7
:1003F0004342403E3D3B3A3836353332302F2D2C88
:100400002A292826252322290014001A000800156D
:100410000017001C0018000C00120013002A002B0B
:100420000004001600070009000A000B000D000E72
:10043000000F002800000039001D001B00060019F5
:10044000000500110010003800E300E6000000E0A5
:100450000021520000000000000000E1002C0022FA
:1004600052E4000000000029001E001F00200021AF
:10047000002200230024002500260027004C000154
:10048000000100010001000100010001002D002E0B
:10049000004B00010000000100E700460077004823
:1004A0000049004A004D00360037000100000001FD
:1004B0000001000000000000000000010001000138
:1004C000000100000000003A003B003C003D003EFF
:1004D000003F00400041004200430044004500331B
:1004E00078AC00AB0021780100A800AA00A900AEFA
:1004F000004E00010000002B782D7820782E7834F3
:10050000782678237824780100277828780000015D
:1005100000010000000000000000000100010001D7
:100520000001000000000009025B00030100A0FAC6
:100530000904000001030101000921110100012249
:1005400040000705810308000109040100020300BF
:100550000000092111010001222200070582032069
:100560000001070503032000010904020001030044
:100570000000092111010001223200070584032037
:1005800000011201000200000008EDFE000004015D
:10059000010200012803540075006B006100200077
:1005A00043007500730074006F006D00730020003D
:1005B0005400430042004B003400300000001A0396
:1005C000540075006B00610020004300750073004B
:1005D00074006F006D00730000000403090411240F
:1005E0001FBECFEFDAE0DEBFCDBF11E0A0E0B1E08B
:1005F000E8E8F2E402C005900D92A039B107D9F7FE
:1006000022E0A0E9B1E001C01D92AC3BB207E1F7E6
:100610000E94311B0C94E2200C940000E8EDF0E005
:1006200080818E7F80831092E2001092DA00109217
:10063000E100A0EEB0E08C9181608C9380818F7797
:10064000808319BCA7EDB0E08C918E7F8C93808164
:100650008F7E80831092A40208952091E40030914F
:10066000E50095E6A9012091EC00822F817020FF22
:1006700006C08091E80080FF06C080E008952091C8
:10068000E80022FD1AC08091B102882389F08530EC
:1006900089F08091EB0085FD0FC02091E40030913E
:1006A000E50042175307F9F29150E1F684E008950E
:1006B00082E0089583E0089581E008958091B30277
:1006C00087FF13C08091E80082FF06C08091E80098
:1006D0008B778093E80004C08091B1028111F2CF42
:1006E00008958091B1028823D9F38091E80080FFBA
:1006F000F8CF8091E8008E77ECCF982F9093E900A7
:10070000242F762F50E0891731F07091EC00209162
:10071000ED005091F00021FD07C09F5F973071F709
:100720008093E90081E008953091EB003E7F3093A3
:10073000EB003091ED003D7F3093ED003091EB0008
:1007400031603093EB007093EC002093ED005093F8
:10075000F0002091EE0027FDE0CF80E00895B0E0AA
:10076000A0E0E5EBF3E00C94B11FC8EDD0E0888188
:100770008F7E8883E7EDF0E080818160808384E074
:1007800082BF81E08093A40288818E7F888302EEFD
:1007900010E0F80110821092DA0081EEC82ED12C00
:1007A000F601108288818F778883888180688883AA
:1007B00088818F7D888319BC1092B1021092B20299
:1007C0001092B0021092AF0290EEE92EF12CF701D8
:1007D00080818B7F808388818160888342E060E0B4
:1007E00080E00E947D03F60180818E7F8083F80186
:1007F000808181608083808188608083F70180812F
:100800008E7F8083888180618883CDB7DEB7E8E002
:100810000C94CD1FFC018091B9029091BA02861709
:100820009707A0F06115710529F49091E8009E7773
:100830009093E80090E06115710551F4911108C0A2
:100840008091E80082FF34C080E00895BC01F2CFBF
:100850008091B1028823C1F18530C1F18091E80017
:1008600083FD30C08091E80082FDEACF8091E800EE
:1008700080FFE1CF8091F3002091F200382F6115C5
:10088000710519F02830310558F091E02830310514
:1008900009F090E02091E8002E772093E800CBCF7C
:1008A00081918093F100615071092F5F3F4FE7CF35
:1008B0008091B102882341F0853041F08091E800B9
:1008C00083FFBECF81E0089582E0089583E008951C
:1008D000089508958091A602089588E198E00FB6E2
:1008E000F894A895809360000FBE90936000A8953F
:1008F000F894DAE0CEEF28E3299320E0299314BEA0
:10090000FFCF08952FB7F8948091A0029091A10293
:10091000A091A202B091A3022FBF0895A3E0B0E07E
:10092000E4E9F4E00C94B71F20919D0230919E02FF
:1009300028173907A1F090939E0280939D02E091C1
:100940009B02F0919C02309751F024E029839B8315
:100950008A830680F781E02DCE01019609952396C2
:10096000E2E00C94D31FA3E0B0E0E9EBF4E00C94D8
:10097000B71F2091990230919A0228173907A1F0E8
:1009800090939A0280939902E0919B02F0919C02CD
:10099000309751F023E029839B838A830680F78177
:1009A000E02DCE01019609952396E2E00C94D31F29
:1009B000E0919B02F0919C02309729F00190F08128
:1009C000E02D0995089580E00895FA01811101C094
:1009D000FB010995089580919402982F9E7F61F400
:1009E000817082608093940280919702813518F023
:1009F00080E58093970208958A34B0F3817088640B
:100A0000F1CFAF92BF92DF92EF92FF920F931F93BD
:100A1000CF93DF93082F162FE901E42FF0E0EE5F6C
:100A2000FD4F611110C0E4915E2F4E2F4983E88382
:100A30005A83DF91CF911F910F91FF90EF90DF903C
:100A4000BF90AF900895E62EF12C4491D42EE42F60
:100A5000F0E026E0829FC00111242FEF30E0B901C1
:100A60000E94EC1F802F90E0880F991F55E5569F3C
:100A7000D001579FB00D11248A1B9B0B982F990F03
:100A8000890F5901AE18BF08AE9ED001AF9EB00DC0
:100A9000BE9EB00D11245B2F189F80011124012FE1
:100AA00011275901A01AB10AAE9E8001AF9E100D08
:100AB000BE9E100D11245901A81AB108AE9CC001A8
:100AC000AF9C900DBE9C900D1124892F9927281B57
:100AD000390B2E9FC0012F9F900D3E9F900D11242A
:100AE000E92F62307105A1F050F46115710509F428
:100AF0009DCF6130710581F0EB2F512F97CF64307E
:100B0000710569F080F06630710509F48FCFF4CF7C
:100B1000E42F4B2F592F8ACFE42F412F87CFEB2F74
:100B2000542F492F83CF4B2F5D2DE12F7FCF80E0B6
:100B30000895F894E82FE295EF70F0E031A1282FA6
:100B40002F7081E090E001C0880F2A95EAF7982F76
:100B50009095932391A392A1892B82A378940895D1
:100B60009091FA0192FF06C0282F28712830F9F4DD
:100B7000877F846093FF06C0282F28712831F1F405
:100B8000877E84612091FB0120FF06C0382F3871D9
:100B90003830D9F4877F816021FF06C0282F287163
:100BA0002831D1F4877E816194FD877E0895282FB6
:100BB00024712430F9F68B7F8860DCCF282F2471D4
:100BC000243101F78B7E8861DDCF382F31713130D0
:100BD00019F78E7F8860E0CF282F2171213121F70E
:100BE0008E7E8861E1CFCF93DF93EC01823891054F
:100BF00081F1D8F58133910509F498C020F5893247
:100C0000910509F488C08A9709F497C0C11520E4BA
:100C1000D20708F0AEC0C11530E2D30708F035C1E5
:100C2000C13CD10508F090C0C83AD10508F0F4C025
:100C3000C53AD10508F0E8C0C430D10520F5C1306F
:100C4000D10509F145C08533910509F45FC0C99705
:100C5000E9F68091FA01837009F028C18091FB01C7
:100C600083FF11C0C9E2D0E00EC0833E910599F127
:100C700070F4803E910501F1823E910539F6809134
:100C8000FA0182FD21C0CE01DF91CF910895863E09
:100C9000910561F1873E910571F1843E910509F05E
:100CA000B5CF8091FB0181FFEECF8091FA01C7EEB5
:100CB000D0E084FD0DC0E7CF8091FA0180FD33C004
:100CC0009091FB0190FFDFCFC3EED0E084FFDBCF3C
:100CD000D0E0C0E0D8CF8091FA0182FDE4C09091CD
:100CE000FB0190FDE3C084FFCECFF2CF8091FA01EB
:100CF00083FDDDCFC8CF8091FA0183FDDAC09091EA
:100D0000FB0191FFF0CFC4EED0E0BDCF8091FA019E
:100D100085FFB9CFA7CF8091FA0185FDCDC0809125
:100D2000FB0183FFB0CFC9E3D0E0ADCF8091FA01E2
:100D300086FFA9CFCAE2D0E0A6CF8091FA0186FF54
:100D4000A2CFC1E3D0E09FCFC83ED10560F4C13E41
:100D5000D10508F098CFCE018D5C9109D0654397FD
:100D600008F491CFB5CFC11541E0D40708F08BCF7F
:100D7000AFCFC03482E5D807E8F4C03292E5D90796
:100D800008F06CC0C11522E5D20708F053C0C115A8
:100D900030E5D30708F44BC08C2F8F710E94B0054B
:100DA00035E0D695C7953A95E1F7CF709C2FEC01C9
:100DB000D06969CFC03842E5D407C8F48C2F869536
:100DC00086952C2F2370C036D24508F44EC087700C
:100DD00030E2839FE001112481E090E002C0880F9F
:100DE000991F2A95E2F7C82BD92BDA684CCFCE0190
:100DF000805C9245809708F06BCFDC2FCC27CC2706
:100E0000DF71C06FD06A3FCFC55AD0E0C95EDE4FF8
:100E1000C881D0E0D06437CFC85AD0E0CC0FDD1FF6
:100E2000C65EDE4F0990D881C02DD4642CCFDF7010
:100E3000D06A29CF2C2F2695269540E2249F900139
:100E400011248C2F8370C1E0D0E002C0CC0FDD1FD5
:100E50008A95E2F7C22BD32BDD6815CFCF71D0E096
:100E6000DC2FCC27C16FD06A0ECF877090E2899FAC
:100E7000E001112481E090E002C0880F991F2A95BB
:100E8000E2F7C82BD92BDC68FECE8D2F8F710E9424
:100E9000B00590E0982F882788279F719C012C2B04
:100EA000E901D062F0CEC2EED0E0EDCEC0EED0E0EF
:100EB000EACEC6EED0E0E7CEC5E3D0E0E4CEE4E98A
:100EC000F1E09191891303C0DF0111971C9291E029
:100ED000EA39F907B1F70895A4E9B1E0EFEF90E03E
:100EE0002D91821751F0EF3F19F4211101C0E92F24
:100EF0009F5F9630A9F7EF3F09F408950E2E000C7E
:100F0000FF0BEE56FE4F828308958091E30190918E
:100F1000B201981301C008958F5F8770FACF292F0F
:100F2000943078F58C3068F590E03CE0239F800D9C
:100F3000911D1124682F677023E0969587952A9557
:100F4000E1F7FC01EE0FFF1FE80FF91FE656FE4F19
:100F500050E040E080E0219130E0062E02C036955E
:100F600027950A94E2F721703327042E01C0220F3F
:100F70000A94EAF7822B4F5F5F4F4330510559F7D0
:100F8000089580E00895292F943098F58C3088F5E5
:100F900090E03CE0239F800D911D1124282F2770A5
:100FA00041E001C0440F2A95EAF723E09695879522
:100FB0002A95E1F7FC01EE0FFF1FE80FF91FE65637
:100FC000FE4F30E020E070E05191DF011197CB013E
:100FD000022E02C0969587950A94E2F7817081955A
:100FE0008527842385278C932F5F3F4F233031053E
:100FF00059F708958093BB0208958091BB02982F02
:101000009670963021F488600E94FA070895877FD1
:10101000FBCF21E030E001C0220F8A95EAF720954E
:101020008091BB0282230E94FA07089521E030E0FC
:1010300001C0220F8A95EAF78091BB02822B0E94A1
:10104000FA0708958093EE0108950F931F93CF93AD
:10105000DF938B01EA019091B102943061F58093A6
:10106000E9008FEF9091E800815095FD06C095ED65
:101070009A95F1F700008111F5CF8091E80085FF86
:101080001AC00E942D03811111C08091E80085FDD6
:1010900006C08091E8008E778093E800F2CFF801D7
:1010A00081918F018093F100219779F78091E80079
:1010B0008E778093E800DF91CF911F910F91089573
:1010C00043E050E0BC0184E00E9425080895CF93DE
:1010D000DF93EC0148E050E0BC0181E00E9425086C
:1010E00088E0FE01A7EAB2E001900D928A95E1F74F
:1010F000DF91CF9108958091940280FD0AC0ECE1C8
:10110000F2E0118210821282339652E0E439F50740
:10111000C1F7269A35B13F7B25B120644FB7F894CB
:101120008CE192E0FC015191CF0168E025B900000B
:1011300000C057FF35B9550F000000C000C000C007
:1011400035B900C06A9591F7F2E084399F0751F7ED
:101150004FBF8FE594E00197F1F700C000000895BC
:10116000EF92FF920F931F93CF93DF938C01CCE10B
:10117000D2E0F12CE12CF8019481609196028091EB
:101180009502F4E1EF16F10404F5992301F1409181
:101190009702413508F040E59E010E9401052FEFBE
:1011A000E21AF20A239688E2E816F10421F70E9477
:1011B0007B08F801848190E00196817099278483EF
:1011C000CDB7DEB7E6E00C94CF1F992301F39E0163
:1011D00040E0E3CFB0E0A0E0E0EFF8E00C94AD1F1A
:1011E000EC014C81042F10E09801D8010E944B20A3
:1011F0009B01AC010E9461204B015C01E0E2F0E048
:10120000E01BF10BA5E5B0E0AC019B010E94612061
:101210006B017C019F01DF010E9443209B01AC0117
:101220000E946C209B01AC01280D391D4A1D5B1DDD
:10123000C701B6010E941420F22E822F90E039E2FD
:101240003F15B0F143E0249F900111243595279577
:10125000122F10959CE1C92E92E0D92E00E085E571
:10126000E82EEF188E2D01FD8F2D412F113508F03E
:1012700040E59601609196020E9401050F5F53E0E0
:10128000C50ED11C083271F70E947B089C8181E059
:10129000992319F0903219F48FEF80931501809102
:1012A0001501890F8C83CDB7DEB7ECE00C94C91F14
:1012B00025E530E0A901481B590BCA019A01220F0C
:1012C000331F280F391F37FFC1CF2F5F3F4FBECFCE
:1012D0000F931F93CF93DF93CCE1D2E0FE011182F5
:1012E00010821282339682E0E439F807C1F710E0E9
:1012F00000E080911A02082E000C990B08171907BC
:10130000A4F180911401082E000C990B801791070D
:1013100064F140919702413508F040E59E016091EB
:101320009602809195020E9401050F5F1F4F239640
:1013300008321105F1F60E947B088091130190910B
:101340001A02980F90931A0220911401280F2093EB
:101350001401121614F497321CF081958093130136
:10136000DF91CF911F910F910895198218821A82EF
:10137000DCCFB0E0A0E0EFEBF9E00C94B01FFC0193
:101380008281DD24DA9480FD02C0DD24D3940CE157
:1013900012E0D0E0C0E028E2B22EF8011182108203
:1013A000128294E0E92EF12CC12C809119028C0D4F
:1013B0008932DCF16B2D0E94DE1F892F082E000C74
:1013C000990B8C179D07A9F4809197028E9DA0011F
:1013D0008F9D500D1124559547955595479541354D
:1013E00008F040E5980160919602809195020E9474
:1013F0000105CD0CF1E0EF1AF108B9F621960D5F69
:101400001F4FC832D10549F60E947B08809119020E
:1014100091E0D91210C081110CC087E280931902AB
:10142000CDB7DEB7E9E00C94CC1F87FFC7CF885D4E
:10143000C5CF8150F3CF90E00196BE010E940020FD
:10144000EDCFEF92FF921F93CF93DF93EC018CE1EE
:10145000E82E82E0F82E10E040919702413508F026
:1014600040E58C81970160919602810F0E940105F1
:101470001A5F83E0E80EF11C103F71F70E947B08B1
:101480009A818C8190FF08C08F5F8C83DF91CF9110
:101490001F91FF90EF9008958150F7CF90919402A3
:1014A00090FF0CC0ECE1F2E08183608342833396CD
:1014B00092E0E439F907C1F70E947B080895A3E0A0
:1014C000B0E0E5E6FAE00C94B51F8C0180911B02B8
:1014D00081110AC09E012F5F3F4F40E56FEF0E94D0
:1014E00001058A8180931B02F8016481613069F0F3
:1014F00080911B0240E0662361F040E0623011F40D
:1015000040911B0280E060E004C060911B0240E05B
:1015100080E00E944E0AF801848190E0019663E029
:1015200070E00E94002084832396E4E00C94D11F95
:10153000A3E0B0E0EEE9FAE00C94B71F90919402BA
:1015400090FF0DC0413508F040E59E012F5F3F4FF1
:101550000E9401054B8169818A810E944E0A23966F
:10156000E2E00C94D31FCF93DF93EC01E4E9F2E0C7
:10157000438162818C810E94980A8C818F5F8C8369
:10158000DF91CF910895CF93DF93EC01EC81F0E0F0
:10159000E95FFC4F4491E4E9F2E0628181810E94BD
:1015A000980A8C818F5F8C83DF91CF910895CF93C0
:1015B000DF93C6EAD1E060E0CE010E94AE20219622
:1015C000C11584E0D807B9F7DF91CF9108951F9333
:1015D000CF93DF93122F8430E0F46430D0F44C309A
:1015E000C0F4C42FD0E0CC0FDD1F98E1699FC00D7F
:1015F000D11D112490E6899FC00DD11D1124632FA8
:10160000CE0186960E94AE20612FCE0187960E9461
:10161000AE20DF91CF911F910895B0E0A0E0E3E10B
:10162000FBE00C94B01F97E0C92E94E0D92E10E097
:1016300000E07601B12C1AC003301105D1F0FE0193
:10164000EE0FFF1FEE0DFF1D259134914C2F6B2DDA
:10165000802F0E94E70A2196CC30D10569F788E1F6
:10166000E80EF11CB39484E0B81649F0D0E0C0E075
:10167000E3CF21E030E04C2F6B2D83E0EACF0F5F0A
:101680001F4F80E6C80ED11C0430110591F6CDB76E
:10169000DEB7E9E00C94CC1FCF93C82F6FEF811118
:1016A00063E282E290E00E94AE206FEFC11166E03B
:1016B00083E290E00E94AE206FEFC11168E284E205
:1016C00090E00E94AE20CF91089580E00E944C0BE4
:1016D00060E085E290E00E94AE200E940D0B0E9427
:1016E000D70A81E00E944C0B08950F931F93CF936C
:1016F000DF93843030F5643020F54C3010F5C42F82
:10170000D0E0CC0FDD1F28E1629FC00DD11D112458
:1017100030E6839FC00DD11D1124CE0186960E9414
:101720009A20082F10E0102F0027CE0187960E94E4
:101730009A209801282BC901DF91CF911F910F9119
:10174000089590E080E0F8CF462F743040F46C307C
:1017500030F4843020F4672F0E94750B089590E0D8
:1017600080E00895CF92DF92FF920F931F93CF9363
:10177000DF936C010091BB028091EE01082BC7E062
:10178000D0E010E0FC2EC8010C2E02C09595879584
:101790000A94E2F780FD0CC02197A0F7F12C8F2D61
:1017A000DF91CF911F910F91FF90DF90CF9008951F
:1017B000B6018C2F0E94A40B0E94F305019761F3E0
:1017C000EECFCF93DF93EC010E94B20BBE010E94DB
:1017D000A40B0E94F305DF91CF910895FC01838152
:1017E0009481892B29F08081918189238F3F51F445
:1017F00080E00895843FE1F717C0883EA8F0813F5C
:10180000B9F712C0808191810E94E10B92959F707F
:10181000963099F358F4925F9F70923048F7803F6A
:1018200019F040F7883E20F781E008959A5FF4CFE1
:1018300082E290E00E949A20833289F483E290E071
:101840000E949A20863059F484E290E00E949A2007
:1018500091E0883209F090E0892F8170089580E04E
:10186000FCCFCF92DF92EF92FF926B017C010E943E
:10187000EB04B701A60188E090E00E94C020FF9031
:10188000EF90DF90CF900895A3E0B0E0EAE4FCE0B1
:101890000C94AA1FE82E762EF42E622E90919402BC
:1018A00090FF2EC0E92FE695AE2FB0E0A45ABE4FB0
:1018B0008C91809317029E7F923031F580E58417DA
:1018C00008F440E59E012F5F3F4F672D8E2D0E944B
:1018D00001054B8169818A810E944E0AE09295023E
:1018E00070929602F0929702662051F060919402F5
:1018F0007091950280919602909197020E94310C0E
:101900002396EFE00C94C61F823019F4F0909702F2
:10191000E5CF863019F4E0909502E0CF8930D9F315
:101920008931E1F6E9519E2F9170592EE695F0E04C
:10193000EE5FFC4FE4910E2F10E08CE1C82E82E0A8
:10194000D82EB12CA12C98E2892E912CC501B4017E
:101950000E94EC1F8E2D511017C0860F4F2D90E561
:101960009F1508F440E59601672D0E940105A00E21
:10197000B11E83E0C80ED11C94E9C91692E0D906C5
:1019800029F70E947B08AACF861BE8CFE4E9F2E0A2
:10199000438128E0421B08F440E021E0628181811C
:1019A0000E94440C0895E4E9F2E0438128E0420FEC
:1019B00008F44FEF21E0628181810E94440C089578
:1019C000E4E9F2E0628128E0621B08F460E021E0D3
:1019D000438181810E94440C0895E4E9F2E0628130
:1019E00028E0620F08F46FEF21E0438181810E94BB
:1019F000440C0895E4E9F2E0818121E043816281B1
:101A000088500E94440C0895E4E9F2E0818121E0CD
:101A100043816281885F0E94440C089580919802FE
:101A2000882319F0815080939802609194027091FC
:101A3000950280919602909197020E94310C089530
:101A400080919802833018F48F5F809398026091A0
:101A500094027091950280919602909197020E9453
:101A6000310C08959091940290FF2CC091708111D7
:101A70002AC0926090939402662351F06091940280
:101A80007091950280919602909197020E94310C7C
:101A900060919402669570E04BE050E088E091E040
:101AA0000E948020892BB1F01092180281E080936F
:101AB000140220E040919702609196028091950275
:101AC0000E94440C0895853210F09864D3CF880F9B
:101AD000982BD0CF81E0809318020E9482049093CB
:101AE000120280931102E2CF809194028695815078
:101AF00009F484E261E00E94320D0895809194021D
:101B000086958F5F853208F081E061E00E94320D9A
:101B100008959091940290FF08C09695981728F028
:101B2000961718F40E947E0D089561E00E94320D10
:101B30000895E4E9F2E083E0808311828FEF8283ED
:101B400080E58383148260817181828193810E9408
:101B5000310C089567EE7EEF90E080E00E94CC208B
:101B600060E082E090E00E94AE2060E083E090E0E0
:101B70000E94AE201092EE0160E074E184E090E0FB
:101B80000E94CC2060E086E090E00E94AE206FEFE3
:101B900087E090E00E94AE2040E050E0BA0188E08B
:101BA00090E00E94C02060E08DE090E00E94AE20B6
:101BB00040E050E0BA0188E190E00E94C02060E07F
:101BC00087E190E00E94AE2040E050E0BA018CE155
:101BD00090E00E94C02070E060E080E290E00E940F
:101BE000CC2040E050E0BA0188E190E00E94C020A3
:101BF00080E00E944C0B0E94650B40E050E0BA016F
:101C00008FE090E00E94C02040E050E0BA0183E104
:101C100090E00E94C020089590E080E00E94A820FB
:101C2000873E9E4F19F40E94180C089580E0089595
:101C30008091ED019091EC01892B8093920148E015
:101C400050E064EE71E082E991E00E948D20892BE2
:101C5000A9F088E0E2E9F1E0A4EEB1E001900D9294
:101C60008A95E1F7E0919B02F0919C02309731F068
:101C70000280F381E02D82E991E0099508951092A8
:101C8000ED01E4E9F1E086E0DF011D928A95E9F7D4
:101C900090E080E00E94B30490E080E00E948E0417
:101CA0001092EC010E94180E0895AAE2B0E0EBE554
:101CB000FEE00C94B61F83EB92E02091F100DC0172
:101CC0002D93CD01B2E08B3B9B07B9F78091B40215
:101CD000833009F472C0B8F4813009F449C082300D
:101CE00009F4B3C08091E80083FF8BC28091B302F6
:101CF0009091B4029A3008F084C2E92FF0E0EC51E0
:101D0000FF4D0C9436208A3009F48EC08B3009F4D4
:101D100071C0893039F78091B302813219F780910F
:101D2000B7029091B802009711F00297D9F680910E
:101D3000E800877F8093E8008091E80082FF38C048
:101D40009091F3008091F200029731F48091F100BC
:101D5000813011F0863021F48091F1008093A60249
:101D60008091E8008B778093E8000E945E03BACFF1
:101D70008091B302813A09F0B5CF8091E800877F66
:101D80008093E8008091B7029091B802892B61F4AA
:101D900068E087EA92E070E00E940A048091E8001F
:101DA0008B778093E8009ECF60E090E080E0F3CFF7
:101DB0008091B1028111C0CF95CF8091B302813A59
:101DC00009F090CF8091B7029091B802892B09F069
:101DD00089CF8091E800877F8093E8008091E800B8
:101DE00080FFFCCF809116018093F1008091E80084
:101DF0008E77B9CF8091B302813209F073CF809191
:101E0000B7029091B802892B09F06CCF8091E8005D
:101E1000877F8093E8000E945E038091B5028093E3
:101E200016010E943F0E5ECF8091B302813209F00D
:101E300059CF8091E800877F8093E8000E945E037D
:101E40008091B6028093A5024DCF8091B302813A72
:101E500009F048CF8091E800877F8093E800809167
:101E6000E80080FFFCCF8091A502BECF803899F0BA
:101E7000823809F0C6C18091B7028F70873008F0B0
:101E8000C0C18093E9008091EB0085FB882780F931
:101E90001092E90006C08091AF029091B0029111BA
:101EA00082609091E800977F9093E8008093F10022
:101EB0001092F1008091E8008E779FC1882309F489
:101EC0008DC1823009F09DC18091B502811190C110
:101ED0008091B7028F702FEF280F263008F091C144
:101EE0008093E9002091EB0020FF82C1933031F410
:101EF0008091EB0080628093EB007AC19091EB00BF
:101F000090619093EB0021E030E001C0220F8A95B0
:101F1000EAF72093EA001092EA008091EB008860D3
:101F2000EACF81116EC11091B5021F778091E30055
:101F30008078812B8093E3008091E800877F8093F5
:101F4000E8000E945E038091E80080FFFCCF809152
:101F5000E30080688093E30082E0111183E08093C6
:101F6000B1024FC18058823008F04BC12091B502B8
:101F70003091B6022C3DE3E03E07A1F583E08A8371
:101F80008AE289834FB7F894DE01139620E03EE0A1
:101F900051E2E32FF0E050935700E49120FF03C09B
:101FA000E295EF703F5FEF708E2F90E0EA30C0F067
:101FB000C7968D939D932F5F243159F74FBF809122
:101FC000E800877F8093E8006AE270E0CE01019626
:101FD0000E940A048091E8008B778093E80011C189
:101FE000C096E7CF8091B7029091B802432F552752
:101FF0004330510509F44AC078F54130510509F4E0
:102000007AC08BE590E0E7E2F5E04230510509F057
:10201000F8C02091E800277F2093E8002091B902C2
:102020003091BA028217930708F49C0140E0211511
:10203000310509F065C0411163C08091E80082FD5F
:10204000C9CF8091B102882329F2853019F280919D
:10205000E80083FFF2CFBECF4132510509F43CC006
:102060004232510509F0CDC08330910508F0C9C056
:10207000FC01EE0FFF1FEC57FE4F0190F081E02DA9
:102080008F579E4FDC018C9190E01AC0332721308E
:102090003105D1F02115310561F02230310509F00B
:1020A000B0C0E4E9F5E0E4918E2F90E0E4E9F5E0DA
:1020B00007C0EAEDF5E0E4918E2F90E0EAEDF5E05F
:1020C000009709F49EC0A5CFEEEBF5E0E4918E2FCA
:1020D00090E0EEEBF5E0F4CF8330910508F091C08D
:1020E000880F991FFC01E657FE4F0190F081E02D0B
:1020F00089E090E08ECF82E190E0E2E8F5E089CFE0
:102100008091B102882309F465CF853009F462CF4C
:102110008091E80083FD5ECF8091E80082FD8DCF45
:102120008091E80080FF83CF9091F3008091F200CE
:102130002115310519F08830910550F041E00897DC
:1021400009F040E08091E8008E778093E8006FCF3F
:1021500044914093F1003196215031090196E8CF26
:10216000803809F04EC08091E800877F8093E800B6
:102170008091B2028093F1009DCE811142C01091F6
:10218000B5021230F0F58091E800877F8093E80077
:102190001093B2020E945E03112311F084E005C087
:1021A0008091E30087FDFACF81E08093B10242E0A5
:1021B00061EC81E00E947D0342E261EC84E00E94D8
:1021C0007D0342E261EC82E00E947D0342E260EC2A
:1021D00083E00E947D038091B10213C08091B5021B
:1021E000813079F481E0933009F080E08093B0028F
:1021F0001092E9008091E800877F8093E8000E94B8
:102200005E038091E80083FF0AC08091E800877F29
:102210008093E8008091EB0080628093EB00AA96A7
:10222000E3E00C94D21F0E943F0E2FEF84E39CE06A
:10223000215080409040E1F700C0000088E198E024
:102240000FB6F894A895809360000FBE909360003D
:10225000FFCF882341F080959091ED0189238093F1
:10226000ED010E94180E0895882339F09091ED0138
:10227000982B9093ED010E94180E0895882309F47D
:1022800054C0823879F40E94D80481FF4EC089E39B
:102290000E946C070E94180E89E30E945F070E944B
:1022A000180E0895833859F40E94D80480FF3DC069
:1022B00083E50E946C070E94180E83E5EECF8438F8
:1022C00059F40E94D80482FF30C087E40E946C0752
:1022D0000E94180E87E4E1CF9CEF980F913AE8F244
:1022E00090E2980F983088F4877021E030E0A901DF
:1022F00002C0440F551F8A95E2F7CA01809590915C
:10230000ED0189238093ED01CACF9BE5980F9330AF
:1023100028F490E080E00E94B3040895885A89313F
:1023200020F490E080E00E948E040895CF93C82F9F
:102330008823C9F08238C9F40E94D80481FD13C0F3
:1023400089E30E946C070E94180E2FEF87EE93E03E
:10235000215080409040E1F700C0000089E30E94D6
:102360005F070E94180ECF9108958338A1F40E9450
:10237000D80480FDF8CF83E50E946C070E94180EF8
:102380002FEF81EE94E0215080409040E1F700C0B3
:10239000000083E5E4CF8438A1F40E94D80482FDD4
:1023A000E2CF87E40E946C070E94180E2FEF81EEA7
:1023B00094E0215080409040E1F700C0000087E4A5
:1023C000CECF8CEF8C0F813A68F4E4E9F1E0819193
:1023D000C817A1F121E0EA39F207C9F78C2F0E9452
:1023E0006C07BFCF80E28C0F883068F4C77021E0A3
:1023F00030E001C0220FCA95EAF78091ED01822BEF
:102400008093ED01AECFEBE5EC0FE33040F4F0E06C
:10241000E95EFE4F808190E00E94B304A4CFC85AC9
:10242000C93108F0A0CFEC2FF0E0EE0FFF1FE65E01
:10243000FE4F808191810E948E0495CF8C2F0E9447
:102440005F070E94180ECACF1F93CF93DF93182FF8
:10245000EB010E949611209739F4812F0E943E11C2
:10246000DF91CF911F9108958FE99FE00197F1F7D8
:1024700000C000002197EFCFA8E0B0E0E2E4F2E175
:102480000C94AB1F6C01DC0113968D919C911497F9
:10249000892B39F08C9111969C9189238F3F09F0FB
:1024A0006BC42896EEE00C94C71F0E94B20B182F45
:1024B000682F89819A810E94C30769817A81812F5F
:1024C0000E94A40B8C01F6019281992309F43CC46B
:1024D0009801225037472031310508F012C48FEFA0
:1024E00093E00E949A208111DCCF025096EAE92EF7
:1024F000FF24F39401114DC0FE01339686E0DF0105
:102500001D928A95E9F78AE0682E87010F5F1F4FB9
:10251000C7010E949A2089831A82882311F2813090
:1025200009F06DC06701B2E0CB0ED11CC8010E945A
:102530009A208A83882309F4B4CF9FEF980F9330B1
:10254000B8F5E3E0EE0EF11CC6010E949A208B83E1
:10255000882309F4A6CF1C828E010F5F1F4FD8017C
:102560002C91222391F2213009F083C011969C9185
:10257000119712968C91913009F043C00E5F1F4F56
:1025800070E060E0893311F460E570E00E9424128D
:102590003EC0E114F4E0FF0609F483CFC7010E94B6
:1025A0009A20811101C001502FEFE21AF20AA2CF46
:1025B0007601843089F602E010E07601FFEFEF1A31
:1025C000FF0AC6010E949A20E1E0F0E0EC0FFD1F37
:1025D000E00FF11F8083882309F463CF8C3741F427
:1025E000E2E0F0E0EC0FFD1FE00FF11F1082B4CF2E
:1025F0000F5F1F4F670107301105F9F652CF7801C1
:10260000ABCF923039F40E5F1F4F0E9496110F5FCF
:102610001F4FA5CF933029F40E5F1F4F0E943E112C
:10262000F6CF943019F00F5F1F4FF1CF0E5F1F4FA1
:1026300030E020E0B8016F5F7F4FF80141818053A7
:10264000990B8A30910550F02150310900F38FE940
:102650009FE00197F1F700C00000F6CF629EF00105
:10266000639EF00D11249C012E0F3F1F842F8B01C0
:10267000E1CFE22FF0E0E059FE4F7490822F869573
:102680008695869590E0FC01E05AFE4FC490277035
:10269000D12C022E02C0D594C7940A94E2F7A1E08F
:1026A000CA22DD24FC01E05BFE4FA490B12C022E77
:1026B00002C0B594A7940A94E2F7B1E0AB22BB2420
:1026C000FC01E05CFE4F8490912C02C095948794AD
:1026D0002A95E2F7E1E08E229924C114D10419F081
:1026E00081EE0E949611A114B10419F086EE0E94A9
:1026F0009611F9E370E060E07F1202C060E570E0DF
:10270000872D0E942412A114B10419F086EE0E94B4
:102710003E11C114D10419F081EE0E943E118114C2
:10272000910409F474CF70E060E08CE22FCF81E077
:102730000E94160803C081E00E9409080E94FD075C
:10274000B0CE82E0F5CF82E0F7CF8091FA018160D0
:102750008093FA0195C08091FB0188608093FB0112
:102760008FC08091FA018260F3CF8091FA0184607A
:10277000EFCF8091FA018860EBCF8091FB018160FF
:10278000EDCF8091FB018260E9CF8091FA018061F9
:10279000DFCF8091FA018062DBCF8091FA01806403
:1027A000D7CF0E943F0E8091FA018068D1CF8091EF
:1027B000FA018C60CDCF8091FB018360CFCF8091F7
:1027C000FA018E7FC5CF8091FB01877FC7CF8091B3
:1027D000FA018D7FBDCF8091FA018B7FB9CF8091B7
:1027E000FA01877FB5CF8091FB018E7FB7CF8091B3
:1027F000FB018D7FB3CF8091FA018F7EA9CF8091AD
:10280000FA018F7DA5CF8091FA018F7BA1CF0E9425
:102810003F0E8091FA018F779BCF8091FA01837FE1
:1028200097CF8091FB018C7F99CF8091FA0182FB39
:10283000992790F921E0922790FB82F990FB83F988
:1028400087CF8091FB01982F909591708E7F892B77
:1028500090FB81F983CF9091FA01892F8F7B96FFAE
:10286000806476CF0E943F0E9091FA01892F97FBEA
:1028700087F980586DCF61E08EE090E00E94AE2035
:102880006091FA017091FB0184E090E00E94CC20FD
:102890000E943F0E06CE60E0EFCF9091FA01892FA3
:1028A0008F7E94FF806154CF9091FA01892F8E7FA3
:1028B00090FF81604DCF9091FB01892F877F93FF1F
:1028C00088604CCF8091940280FF12C08E7F8093ED
:1028D0009402609194027091950280919602909179
:1028E00097020E94310C109218020E947B08D9CDE9
:1028F00081608093940261E086950E94320DD1CD73
:1029000044E75DE06EE77DE00E94E504CACD4EE756
:102910005DE064E77DE0F8CF4AEF5CE064E07DE0F5
:10292000F3CF44E05DE06AEF7CE0EECF40EE5CE0A8
:102930006DEE7CE0E9CF4DEE5CE060EE7CE0E4CF54
:1029400046EC5CE063ED7CE0DFCF43ED5CE066EC01
:102950007CE0DACF4EE05DE060E27DE0D5CF40E2A2
:102960005DE06EE07DE0D0CF61E081E0C6CF65E064
:1029700082E00E94890D95CD68E086E0FACF6EE096
:1029800089E0F7CF64E18FE0F4CF67E185E1F1CF33
:1029900061E088E1B2CF62E289E1EBCF61E083E2FE
:1029A000ACCF01302CE71207E1F003303CE713070E
:1029B00091F001154CE71407B1F40E943F0E5FEF50
:1029C00084E39CE0515080409040E1F700C000005B
:1029D0000E946D0466CD6FEF7FEF90E080E00E9473
:1029E000CC200E941311D6010D911C91992311F155
:1029F000C8010E94B20BF82E682FC8010E94C307BD
:102A0000B8018F2D0E94A40B0E94F305182FB82E39
:102A1000F60122814581342F32953F70892F8295AE
:102A20008F70E82EF12C8C30E8F5F701E251FF4D64
:102A30000C943620C8010E948F07F82EE1CF092F91
:102A40000F70907F11F00295007F812F2223C9F033
:102A5000002369F090E2910F983010F011110BC033
:102A60008091ED01082B0093ED010E94180E812F3B
:102A70000E94961117C08091EC01082B0093EC0185
:102A8000F4CF0E943E11002369F00095105E1830CB
:102A900010F0B11012C08091ED0108230093ED01F8
:102AA0000E94180E38E0E31AF10844E0E416F1043D
:102AB00008F0F7CC0E94D804F4CC8091EC010823F4
:102AC0000093EC01EDCF892F8F70907F903211F041
:102AD0008295807FF1E0BF120CC0222329F03630AE
:102AE00008F70E943411DECF3530E0F60E9429113C
:102AF000D9CF222349F03323A1F340FFB8CF4F7041
:102B0000D60115964C93EDCF332381F3193349F455
:102B1000BFEFE7EEF3E0B150E040F040E1F700C076
:102B20000000812F0E943E11BDCF892F869586958A
:102B3000837061F0813009F0B5CF812F937021113E
:102B400002C080E090E00E948E04ACCF812F937091
:102B5000211102C080E090E00E94B304A3CF892F2E
:102B60008370A1F521119ECF812F82958695877064
:102B7000880F880F412F4F70082E01C0440F0A9410
:102B8000EAF7212F207114FF07C02FE030E001C0C9
:102B9000220F8A95EAF72095969596959370923034
:102BA00081F0822F842B933030F48091EE019130AC
:102BB00029F0242B82230E94220874CF842B822B9D
:102BC000FACF242B8091EE018227F5CF8695222320
:102BD00011F0892F8170882309F464CF812F8295A9
:102BE00086958770880F880F412F4F70082E01C07F
:102BF000440F0A94EAF7212F207114FF07C02FE039
:102C000030E001C0220F8A95EAF7209596959695B7
:102C10009370923081F0822F842B933030F4809126
:102C2000BB02913029F0242B82230E94FA073ACF6D
:102C3000842B822BFACF242B8091BB028227F5CFE5
:102C4000092F0F70222329F0802F0E941608812F50
:102C500048CF812F0E942911802F0E94090822CF7E
:102C6000812F41EF141789F1411750F050EF1517DC
:102C7000B9F02223B1F13111FACE892F8F7129C019
:102C8000A2EF1A1749F1B3EF1B13F3CF80E0222311
:102C900061F29F7181E001C0880F9A95EAF7C5CF74
:102CA000222379F0353008F0FDCE292F2F7181E0F5
:102CB00090E001C0880F2A95EAF79091BB0289271E
:102CC000B4CF363008F0EECEF0CF892F8F712223AB
:102CD00021F20E941608E6CE892F8F712223C9F3B4
:102CE000BCCF332359F0893309F01BCFEFEFF7EE58
:102CF00023E0E150F0402040E1F711CF892F8F71A0
:102D0000ACCF011557E7150709F411CD013087E75E
:102D1000180709F416CD980130572332310508F011
:102D200040CE84E090E00E94A8209093FB01809325
:102D3000FA01F801E150F047E232F10508F005CD63
:102D4000E650FF4D0C9436200115A7E71A0709F449
:102D5000F2CC0130B7E71B0709F4F5CC8091ED0107
:102D60008272F801E052F847E531F10508F03BCEF8
:102D7000E45EFE4D0C94362085E0F601DE011196EE
:102D800001900D928A95E1F7F601228189819A815D
:102D900021118BCB0E948F07182F8FCB1F93CF93BE
:102DA000DF938091B101807F09F049C08091AE012D
:102DB000882309F444C08091E301D091B20160916D
:102DC000AC017091AD01A091AF01B091B001C62FDF
:102DD000C72316E0D81799F190E0109711F0CF3F74
:102DE00019F401968770F6CF189F9001199F300D46
:102DF0001124F901ED54FE4F41814713F2CF408178
:102E00004613EFCF42814111ECCF438154814A1BDD
:102E10005B0B483C510528F78091B1018F708061B0
:102E20008093B101F901E854FE4F80818F70806179
:102E300080838CEA91E00E943C120E948507DF911A
:102E4000CF911F910895A1E1B0E0E9E2F7E10C9480
:102E5000AF1F8C0185E0F801DE011D9601900D92F7
:102E60008A95E1F7F801E2808CEAA82E81E0B82E7D
:102E70006091AF017091B0016115710509F426C12F
:102E80009091AC014091AD01892F84238F3F09F4CB
:102E90001DC120813181C380D480F090AE01F60144
:102EA000E61BF70BFF2009F4DCC08091B101582F1D
:102EB000507FE83CF10508F09FC051116BC0FE2C1B
:102EC000431314C0921312C0E11010C08F708061C0
:102ED0008093B101C5010E943C128091B101F801BB
:102EE00085838F2D6196EAE00C94CB1FC114D10429
:102EF00029F0822F83238F3F09F003C180E0F82F50
:102F0000F170DF2E80FF3CC08091E3014091B2015F
:102F100056E0841315C02D873E878D859E850E94BF
:102F2000E10B292F22952F702230F0F0243018F574
:102F30009F70F1F0F8019581907FD1F4D12C1EC0E3
:102F400090E0589FF001599FF00D1124ED54FE4F71
:102F50006181361306C06081261303C06281E612C8
:102F60000FC001968770D5CF9F7011F0882331F381
:102F7000805E883018F3C8010E943C12FD2CB1CF4E
:102F8000EE2009F4AECF8091B10181608093B10150
:102F9000F12CA7CF431306C0921304C0F801EE2012
:102FA00009F479C0C8010E94EE0B882309F1EE20D4
:102FB000F9F08091B101803270F02091AC01309134
:102FC000AD0138872F831986DB86CA868C87CE01B0
:102FD00007960E943C1286E0F801ACEAB1E001904D
:102FE0000D928A95E1F70E94CE16FF24F39479CFD3
:102FF000C8010E943C12F9CF51110AC08CEA91E03D
:103000000E943C1286E0F50111928A95E9F7C0CF43
:1030100043130FC092130DC0E1100BC0F80185835C
:10302000C8010E943C1286E0F50111928A95E9F7E9
:1030300058CFC8010E94EE0B8823D1F2EE20C1F2D6
:103040008091B101803238F22091AC013091AD0114
:103050003A8329831B82DD82CC828E83CE01019646
:10306000B8CFE83CF105F8F6FE2CEE2009F2431348
:103070001FC092131DC08091B10180FD10C0982F18
:10308000907F69F0F8018583903F31F0982F907F11
:10309000905F8F70892B8583C8010E943C1286E067
:1030A000F801ACEAB1E001900D928A95E1F719CFF1
:1030B000C8010E94EE0B81118ECF8091B101816019
:1030C0008093B101C8010E943C120BCFEE2009F49D
:1030D0008FCFC8010E94EE0BF82E882309F488CF09
:1030E00086E0F801ACEAB1E001900D928A95E1F733
:1030F0008091AC019091AD010E94E10B0E94CE162F
:10310000F0CE81E08E25FBCEA7E1B0E0EAE8F8E161
:103110000C94B61F4B8B5C8B6D8B7E8B8F8B6111F0
:103120001092EC011A8A198A85E0FE017396DE017D
:103130001D9601900D928A95E1F786E0FE013D967D
:10314000DE01179601900D928A95E1F7CE01079660
:103150000E942317882359F016E08091E301909193
:10316000B201891343C06796E3E00C94D21F86E056
:10317000FE013796DE01119601900D928A95E1F7D6
:103180008A859B85892B41F38F81988589238F3F81
:1031900019F32091B20130E0C90101968770992797
:1031A0004091E3014817190671F40E943F0E1092F6
:1031B000B2011092E30186E0ECEAF1E0DF011D923A
:1031C0008A95E9F7C9CF96E0929FD001939FB00D01
:1031D0001124AD54BE4FFE01319601900D929A9587
:1031E000E1F78093B2010E948507B6CF819FC001AD
:1031F00011248D549E4F0E942317882309F4B3CFC6
:103200008091E30190E00196877099278093E30114
:10321000A4CFA8E0B0E0EFE0F9E10C94AB1F8E0181
:103220000F5F1F4F88E0F80111928A95E9F79CE43F
:10323000E92E91E0F92E680120E5622E21E0722E40
:1032400088248394912CF70181917F018F3F09F4A9
:1032500046C0F894E82FE295EF70F0E021A18F705E
:10326000A40102C0440F551F8A95E2F7CA01922FAC
:10327000982B91A392A18095892382A3789400C072
:10328000E0E5F1E021E030E0B12CA12C41914F3F8D
:1032900009F471C0A42FA295AF70B0E090968C9104
:1032A00090E04F7002C0959587954A95E2F780FDB2
:1032B00062C0C901A82AB92A220F331F51E0EC3598
:1032C000F50721F7F701319780818F3F11F00E94B8
:1032D000990580EA8A95F1F7F601B182A082F2E0C1
:1032E000CF0ED11C6E147F0409F0ADCF48E050E042
:1032F000B80182EF91E00E948D20892B09F43EC035
:1033000088E0F801A2EFB1E001900D928A95E1F713
:1033100081E08093F1010E9482049093F0018093F8
:10332000EF012091EF013091F0014FB7F8948091B7
:10333000A0029091A102A091A202B091A3024FBF5E
:10334000821B930B0597F0F048E050E062EF71E0CC
:1033500089E092E00E948D20892BC9F088E0E2EF9D
:10336000F1E0A9E0B2E001900D928A95E1F781E0E9
:103370001092F10108C090E080E09CCF8091F101B3
:103380008111CFCF80E02896EEE00C94C71F80E03B
:10339000EFCF1F920F920FB60F9211242F933F93EE
:1033A0004F935F936F937F938F939F93AF93BF934D
:1033B000CF93DF93EF93FF93D091E900DF7080917B
:1033C000EC00C82FC17080FDC0E81092E900809128
:1033D000F000877F8093F00078940E94550E109241
:1033E000E9008091F00088608093F000CD2BCF70D1
:1033F000C093E900FF91EF91DF91CF91BF91AF9121
:103400009F918F917F916F915F914F913F912F91FC
:103410000F900FBE0F901F9018951F920F920FB62E
:103420000F9211242F933F934F935F936F937F934A
:103430008F939F93AF93BF93EF93FF938091E1009E
:1034400082FF09C08091E20082FF05C08091E10007
:103450008B7F8093E1008091DA0080FF24C080910F
:10346000D80080FF20C08091DA008E7F8093DA0040
:103470008091D90080FF9DC080E189BD82E189BD36
:1034800009B400FEFDCF81E08093B1028091A402D7
:10349000811109C00E940E030E94AF038091E200D7
:1034A00084608093E2008091E10080FF17C08091EA
:1034B000E20080FF13C08091E2008E7F8093E200E3
:1034C0008091E20080618093E2008091D800806268
:1034D0008093D80019BC85E08093B1028091E1000F
:1034E00084FF2BC08091E20084FF27C080E189BD6A
:1034F00082E189BD89B5982F917080FFFBCF8091C3
:10350000D8008F7D8093D8008091E1008F7E8093DA
:10351000E1008091E2008F7E8093E2008091E200E2
:1035200081608093E2008091B202882309F447C051
:1035300084E08093B1028091B1028091E10083FF29
:1035400027C08091E20083FF23C08091E100877F44
:103550008093E10082E08093B1021092B2028091E8
:10356000E1008E7F8093E1008091E2008E7F809366
:10357000E2008091E20080618093E20042E060E03E
:1035800080E00E947D038091F00088608093F000CD
:10359000FF91EF91BF91AF919F918F917F916F912B
:1035A0005F914F913F912F910F900FBE0F901F9001
:1035B000189519BC1092B1021092A40274CF809198
:1035C000E30087FD93E09093B102B5CF78941F920A
:1035D0001FB61F9211248F939F93AF93BF93809137
:1035E000A0029091A102A091A202B091A302019623
:1035F000A11DB11D8093A0029093A102A093A202ED
:10360000B093A302BF91AF919F918F911F901FBE66
:103610001F9018951F921FB61F9211248F939F938E
:10362000AF93BF9380919F02811113C08091A0023C
:103630009091A102A091A202B091A3024196A11D76
:10364000B11D8093A0029093A102A093A202B09317
:10365000A302BF91AF919F918F911F901FBE1F90AA
:103660001895CDB7DEB7AA970FB6F894DEBF0FBE98
:10367000CDBF85B7806885BF85B7806885BF84B7B3
:10368000877F84BF0FB6F894A89580916000886109
:1036900080936000109260000FBE80E890E00FB64B
:1036A000F89480936100909361000FBE87E995E0E4
:1036B00090939101809390010E940E030E94AF03AA
:1036C0008091E20084608093E20078948091B1025E
:1036D0008823A1F01091E9001F709091EC00892FD0
:1036E000817090FD80E8182B1092E9008091E8002D
:1036F00083FD0E94550E1F701093E90082E084BD87
:1037000093E095BD9AEF97BD80936E000E94180CD0
:10371000811102C00E94650B84E90E94990586E62A
:103720000E94990587E90E94990586EC0E949905F7
:1037300000E511E09CE5E92E91E0F92ED8018D918C
:103740008D018F3F11F00E949905E016F106B1F747
:1037500088E0E9E0F2E0DF01282F1D922A95E9F7E1
:10376000E2EFF1E0DF011D928A95E9F70E940C0E6D
:10377000811102C00E94AA0D82E090E00E949A206E
:103780008093FF0184E090E00E94A8209093FB01C9
:103790008093FA010E940919EFE3FCE93197F1F7F0
:1037A00000C000000E9409198091090280FF08C032
:1037B0006FEF7FEF90E080E00E94CC200E946D04CC
:1037C00083E090E00E949A200E9422088091FC01F0
:1037D000811133C00E940C0E811104C00E94AA0DF9
:1037E0000E94990D88E090E00E94A22060939402CC
:1037F0007093950280939602909397026E7F71F476
:103800000E94990D88E090E00E94A22060939402AB
:103810007093950280939602909397020E94EB0416
:10382000109218028091940280FF04C060E0869597
:103830000E94320D81E08093FC0180E091E0909342
:103840009C0280939B0208E1402E512C88E0682E58
:1038500082E0782E8091B10200E112E1853009F416
:1038600095C00E940919B0E0AB2EB2E0BB2E19E062
:10387000812E12E0912ED401F501219131918D918B
:103880009D916E167F0609F48BC028173907A9F39E
:10389000312CD4010D911D914D01F501C190D190B4
:1038A0005F01C016D10659F1C026D126212CEE2485
:1038B000E394F12CC7018C219D21892BB1F02EA21C
:1038C0003FA221E0C70180239123892B09F420E046
:1038D00028A70E9482048160782F9AA789A74EA109
:1038E0005FA168A58AA50E9484182394EE0CFF1C92
:1038F000FCE02F12DFCFF501329711830083339460
:1039000024E03212C6CF8FB7F8944091A0025091B4
:10391000A1026091A2027091A3028FBF63C0809147
:10392000B102843011F110929F02F0E40FB6F894C6
:10393000A895409260000FBEF093600083B7817F2E
:10394000846083BF83B7816083BF7894889583B791
:103950008E7F83BF0FB6F894A89580916000886130
:1039600080936000109260000FBE8091B0028823A7
:1039700069F00E940919E9E0F2E081919191892BA7
:1039800009F0C6C222E0E131F207B9F78091B10235
:10399000853009F4C4CF0E943F0E0E94D80461CF45
:1039A0002817390709F074CF0E9482048C01809196
:1039B000FD019091FE0108171907A1F08FEF89A36F
:1039C0008AA31BA20E9482048160782F9DA38CA3EE
:1039D00049A15AA16BA18DA10E9484181093FE01E8
:1039E0000093FD01809118028823D1F18091170284
:1039F000E0919402E695E81BE0931302823009F00F
:103A00006CC0F0E0E250FE4FE4910E2F10E0E3ECCA
:103A1000EE2EEAE0FE2E80911402882361F01092CF
:103A200014020E9482049093120280931102109259
:103A30001602109215020E948204E0911102F09188
:103A400012028E1B9F0B8F3F9F4750F4E00FF11F18
:103A5000F0931202E093110281E192E0F7010995DF
:103A60000E94D80490910802891769F08093080297
:103A70008FB7F8944091A0025091A1026091A202E8
:103A80007091A3028FBF8091B102843009F0E2CE21
:103A900083E08093E9008091E80082FFDBCE809193
:103AA000E80090E085FF06C00E942D03882309F4FA
:103AB0006EC091E08091E8008B778093E8009923B5
:103AC00009F4C8CE8981EFEFE80FE33108F086C032
:103AD000F0E0EF5CFE4D0C943620863059F4F0E0B7
:103AE000E550FE4FE4910E2F10E073EBE72E7AE0E5
:103AF000F72E91CF893061F4E695F0E0E850FE4F63
:103B0000E4910E2F10E061E2E62E6AE0F62E83CFFC
:103B10008F3061F4E695F0E0EB50FE4FE4910E2F0C
:103B200010E059EBE52E59E0F52E75CF853159F4AB
:103B3000F0E0EE50FE4FE4910E2F10E048E6E42E48
:103B400049E0F42E68CF08E210E09AEEE92E98E002
:103B5000F92E883109F45FCF833249F4E0EFF1E0C8
:103B6000059114913FE5E32E3AE0F32E54CF04EF94
:103B700011E020EBE22E28E0F22E843209F44BCF44
:103B800000ED17E088E6E82E84E0F82E44CF00E24E
:103B900010E0CE0101967C018091E80085FD0AC00D
:103BA0008091E8008B778093E8000E942D038823A2
:103BB00099F37FCF8091F100D7018D937D01015062
:103BC000110951F776CF1A828BE08B8337C08A8137
:103BD000823009F4B3C128F48130C9F18FEF8983B1
:103BE0002DC0833039F08430C9F71B821C821D82BE
:103BF0001E8224C08091090290910A029827892789
:103C000098279C838B8380910B0290910C029827BC
:103C1000892798279E838D8380910D0290910E02B3
:103C200098278927982798878F8380910F029091F2
:103C300010029827892798279A87898740E250E0C1
:103C4000BE016F5F7F4F82E00E94250803CE2FB731
:103C5000F8946091A0027091A1028091A2029091CB
:103C6000A3022FBF0E943C206B837C838D839E83A5
:103C7000E5CF8A81823089F0853009F0AFCF80911D
:103C8000940280FF15C0809194028E7F80939402ED
:103C9000109218020E947B08D1CF6B817C818D81AC
:103CA0009E810E943C2085E290E00E94AE20C6CF1B
:103CB00081608093940260E086950E94320DBECFB1
:103CC0004C816B818A810E94750B982789279827E0
:103CD0009E838D83B3CF2D813E81322723273227C8
:103CE0004C816B818A810E94E70AA8CF0E940D0B4C
:103CF000A5CF9A81923009F071CF8830D9F18930FF
:103D000009F463C08B81823009F1A8F4813009F095
:103D100095CF8C81B0E58B9FC00111246FEF70E0CF
:103D20000E94EC1F462F20E0609196028091950240
:103D30000E94440C83CF8330C9F0843009F07ECFD9
:103D400020E0409197026D818C81F2CF8C81882395
:103D500009F499CF8091940281608093940260E08D
:103D600086950E94320D60E08C81A7CF8C81809374
:103D7000980264CF8B818230E1F078F4813009F0D1
:103D80005DCF80919702EFEF8E9FC001112460E517
:103D900070E00E94EC1F6C8351CF833099F0843027
:103DA00009F04CCF809195028C83809196028D838F
:103DB00045CF8091940280FF03C086958C833ECFCF
:103DC00080E0FCCF80919802F9CF609194027091CD
:103DD000950280919602909197020E94310C2ECF0D
:103DE00080E18A832BCF82E08A838AE5EECECA8087
:103DF000DB80DC24CD24DC248E010F5F1F4FEC80A0
:103E0000E00EF12EF11CC6018A559E4FE016F10618
:103E100009F414CFFAE5CF16F2E0DF0658F40E9459
:103E20009A20D80114968C93FFEFCF1ADF0A0F5F08
:103E30001F4FE9CFF8011482F7CF0A811B811027A9
:103E400001271027CE0101966C01EC80E00EF12EC7
:103E5000F11CC8018A559E4F0E151F0509F4EECEC0
:103E60000A35A2E01A0720F4F60164810E94AE2010
:103E7000FFEFCF1ADF0A0F5F1F4FEBCF0E94D70A69
:103E8000DDCE84E0AECFCA80DB80DC24CD24DC2410
:103E90008E010F5F1F4FEC80E00EF12EF11CC6016A
:103EA0008696E016F10609F4C9CE20E8C21621E094
:103EB000D20658F40E949A20D80114968C93FFEFF2
:103EC000CF1ADF0A0F5F1F4FEACFF8011482F7CF36
:103ED0000A811B81102701271027CE0101966C0152
:103EE000EC80E00EF12EF11CC8018696E016F1067A
:103EF00009F4A4CE0038A1E01A0720F4F601648189
:103F00000E94AE20FFEFCF1ADF0A0F5F1F4FECCFEA
:103F100009BD19BD09B400FEFDCF8091D8008F7D89
:103F20008093D8008091E00082608093E0008091CF
:103F3000E00081FDFCCF0E943F0E28CD85E290E09D
:103F40000E949A201B821C821D828E8377CE2F9224
:103F50003F924F925F926F927F928F929F92AF9219
:103F6000BF92CF92DF92EF92FF920F931F93CF9366
:103F7000DF93CDB7DEB7CA1BDB0B0FB6F894DEBFFD
:103F80000FBECDBF09942A88398848885F846E8423
:103F90007D848C849B84AA84B984C884DF80EE806D
:103FA000FD800C811B81AA81B981CE0FD11D0FB676
:103FB000F894DEBF0FBECDBFED01089587FB082E3C
:103FC000062687FD819567FD61950E9474200EF499
:103FD000919507FC81950895AA1BBB1B51E107C071
:103FE000AA1FBB1FA617B70710F0A61BB70B881F89
:103FF000991F5A95A9F780959095BC01CD01089518
:1040000097FB072E16F4009407D077FD09D00E9485
:10401000EC1F07FC05D03EF4909581959F4F0895C5
:10402000709561957F4F0895A1E21A2EAA1BBB1BC4
:10403000FD010DC0AA1FBB1FEE1FFF1FA217B30774
:10404000E407F50720F0A21BB30BE40BF50B661F8A
:10405000771F881F991F1A9469F76095709580954E
:1040600090959B01AC01BD01CF010895EE0FFF1F9C
:104070000590F491E02D0994692796276927782700
:104080008727782708950E944B20332312F48A1B38
:104090009B0B0C945C20A29FB001B39FC001A39F17
:1040A000700D811D1124911DB29F700D811D112471
:1040B000911D08950E944B20B7FF0895821B930B1A
:1040C00008950E944B20A59F900DB49F900DA49F32
:1040D000800D911D11240895B7FF0C9461200E945A
:1040E0006120821B930B0895991B79E004C0991FEE
:1040F000961708F0961B881F7A95C9F78095089542
:10410000FC014150504030F001900616D1F7319734
:10411000CF010895882799270895FB01DC0104C089
:104120008D910190801921F441505040C8F7881BAF
:10413000990B0895F999FECF92BD81BDF89A992700
:1041400080B50895A6E1B0E044E050E00C94D4209E
:10415000A8E1B0E042E050E00C94D420262FF99979
:10416000FECF92BD81BDF89A019700B4021639F0D6
:104170001FBA20BD0FB6F894FA9AF99A0FBE0895A7
:104180000396272F0E94AF200E94AE20252F0E9469
:10419000AF20242F0C94AF200196272F0E94AF2030
:1041A0000C94AE20DC01CB01FC01F999FECF06C0D6
:1041B000F2BDE1BDF89A319600B40D9241505040E5
:1041C000B8F70895F894FFCF360F5E0F01115E0F18
:1041D0000111910FB20F0111B010BD101F151F1565
:1041E000631563159515521552155215AF15201606
:1041F00030163016DF135414E713B113B513EB1355
:10420000B913EF13FB13C5134D14C913FF13CD13CB
:1042100003142B14D11307143214D7130D141514CF
:10422000BD13F313C113F713DB13111421143B1443
:104230004B14AB13E3135B146214801487148C14B7
:10424000911496149B14A014A514AA14AF14B414BA
:10425000B714BC14BF14C214C514C814CB14CE14A4
:104260005112E31DE71D391E601E6B1E761E791E5E
:10427000791E791EEE1DEE1DF01EF31EF71E1D1F8A
:084280003E1F411F431F681F90
:104288006A0467086904600801191A1B1C1D1E1FAF
:1042980020212201020101818283E200E900EA0073
:1042A800B500B600B700CD008301CC008A019201A9
:1042B80094012102230224022502260227022A024F
:1042C800B300B4006F0070009F01CB01946697C6DD
:1042D800343591903133F4F5F6F7929300010202E8
:1042E80002020606060909090909090F0F0F0F0F2F
:1042F8000F15151518191919191919191919192333
:10430800244022320001DE00AC0039055205720556
:00000001FF
